:100000000C947B080C94A8080C94A8080C94A808DD
:100010000C94A8080C94A8080C94A8080C94A808A0
:100020000C94A8080C94A8080C94A8080C94A80890
:100030000C94A8080C94A8080C94A8080C94A80880
:100040000C94A8080C947A3E0C94A8080C94A80868
:100050000C94A8080C94A8080C9471470C94865131
:100060000C94A8080C94B6250C94A8080C94A80825
:100070000C94A8080C94A8080C94A8080C94A80840
:100080000C94A8080C94A8080C94A8080C94A80830
:100090000C94A8080C94A8080C94A8080C94A80820
:1000A0000C94A8080C94A8080C94A8080C94A80810
:1000B0000C94A8080C94A8080C94A8080C94A80800
:1000C0000C94A8080C94A8080C94A8080C94A808F0
:1000D0000C94A8080C94A8080C94A8080C94A808E0
:1000E0000C94A808084AD73B3BCE016E84BCBFFDE8
:1000F000C12F3D6C74319ABD56833DDA3D00C77FF8
:1001000011BED9E4BB4C3E916BAAAABE0000008090
:100110003F05A84CCDB2D44EB93836A9020C50B91F
:10012000918688083CA6AAAA2ABE000000803F4506
:1001300072726F723A005072696E746572206861F3
:100140006C7465642E206B696C6C28292063616C6B
:100150006C6564202121006F6B00526573656E64CD
:100160003A006563686F3A002200556E6B6E6F77D8
:100170006E20636F6D6D616E643A22007A5F6D6907
:100180006E3A00795F6D696E3A00785F6D696E3A1C
:10019000005A3A00593A0020436F756E7420583A5D
:1001A00000453A005A3A00593A00583A0046495236
:1001B0004D574152455F4E414D453A4D61726C6914
:1001C0006E2056313B20537072696E7465722F67D2
:1001D00072626C206D617368757020666F72206743
:1001E000656E36204649524D574152455F55524C37
:1001F0003A687474703A2F2F7777772E6D656E6436
:10020000656C2D70617274732E636F6D2050524F48
:10021000544F434F4C5F56455253494F4E3A312E3F
:1002200030204D414348494E455F545950453A4D61
:10023000656E64656C2045585452554445525F4381
:100240004F554E543A310A0020423A0020453A00B8
:10025000543A0020573A0020453A00543A002040D2
:100260003A0020423A006F6B20543A006F6B004E08
:100270006F204C696E65204E756D626572207769DE
:10028000746820636865636B73756D2C204C6173B3
:1002900074204C696E653A004E6F20436865636B4D
:1002A00073756D2077697468206C696E65206E7552
:1002B0006D6265722C204C617374204C696E653AD6
:1002C00000636865636B73756D206D69736D617430
:1002D00063682C204C617374204C696E653A004C45
:1002E000696E65204E756D626572206973206E6F50
:1002F00074204C617374204C696E65204E756D627C
:1003000065722B312C204C617374204C696E653AF8
:10031000002020506C616E6E657242756666657273
:1003200042797465733A20002046726565204D65F8
:100330006D6F72793A2000582053277320496E6BF5
:10034000204C4C4300207C20417574686F723A2029
:1003500000342F31382F3230313300204C61737428
:1003600020557064617465643A2000312E302E305F
:1003700020524332004D61726C696E3A2000205366
:100380006F667477617265205265736574002057DB
:1003900061746368646F67205265736574002042FE
:1003A000726F776E206F75742052657365740020CC
:1003B00045787465726E616C205265736574005087
:1003C0006F776572557000737461727400220065F6
:1003D0006E717565696E672022006563686F3A000B
:1003E00020746F6F206C6F6E672065787472757300
:1003F000696F6E2070726576656E74656400206347
:100400006F6C6420657874727573696F6E2070729A
:100410006576656E7465640024F404D9201BC40CF1
:100420005C0E9804C4095F0265077101F405F900C8
:10043000FB04B30048048700C1036900580355005A
:1004400003034500BE023A008402310053022A0031
:100450002902250004022000E4011C00C801190043
:10046000AF011700980114008401130071011000FE
:100470006101100051010E0043010D0036010B0017
:100480002B010B0020010B00150109000C010900D4
:1004900003010800FB000800F3000800EB00070060
:1004A000E4000600DE000600D8000600D2000600C8
:1004B000CC000500C7000500C2000500BD00040017
:1004C000B9000400B5000400B1000400AD00040050
:1004D000A9000400A5000300A20003009F0004007F
:1004E0009B000300980003009500020093000300A6
:1004F000900003008D0002008B00030088000200C2
:100500008600020084000300810002007F000200D8
:100510007D0002007B0002007900020077000100EC
:1005200076000200740002007200010071000200F7
:100530006F0002006D0001006C0002006A00010003
:10054000690002006700010066000100650001000B
:10055000640002006200010061000100600001000F
:100560005F0002005D0001005C0001005B00010013
:100570005A00010059000100580001005700010015
:100580005600010055000100540001005300000016
:100590005300010052000100510001005000010011
:1005A0004F0001004E0000004E0001004D00010010
:1005B0004C0001004B0000004B0001004A0001000C
:1005C0004900010048000000480001004700010008
:1005D0004600000046000100450000004500010003
:1005E00044000100430000004300010042000000FD
:1005F00042000100410000004100010040000100F4
:100600003F0000003F0001003E0000003E000100EE
:100610003D0000003D0001003C0000003C000000E7
:100620003C0001003B0000003B0001003A000000DC
:100630003A000100390000003900010038000000D4
:1006400038000000380001003700000037000100CA
:1006500036000000360000003600010035000000C2
:1006600035000000350001003400000034000000B7
:1006700034000100330000003300000033000100AB
:1006800032000000320000003200010031000000A2
:100690003100000031000100300000003000000097
:1006A000300001002F0000002F0000002F0000008C
:1006B0002F0001002E0000002E0000002E0001007F
:1006C0002D0000002D0000002D0000002D00010075
:1006D0002C0000002C0000002C0000002C00010069
:1006E0002B0000002B0000002B0000002B0001005D
:1006F0002A0000002A0000002A0000002A00010051
:100700002900000029000000290000002900000045
:100710002900010028000000280000002800000037
:10072000280000002800010027000000270000002A
:10073000270000002700000027000100260000001D
:100740002600000026000000260000002600010010
:100750002500000025000000250000002500000005
:1007600025000000250001002400000024000000F6
:1007700024000000240000002400010023000000E9
:1007800023000000230000002300000023000000DD
:1007900023000000230001002200000022000000CE
:1007A00022000000220000002200000022000100C0
:1007B00021000000210000002100000021000000B5
:1007C00021000000210000002100010020000000A5
:1007D0002000000020000000200000002000000099
:1007E0002000000020000000200001001F00000089
:1007F0001F0000001F0000001F0000001F0000007D
:100800001F0000001F0001001E0000001E0000006D
:100810001E0000001E00000024F4D43050C38E20BF
:10082000C2A24017828B7011127A910D816CD90A85
:10083000A861E108C7586607615143061E4B5D0574
:10084000C145A7041A411104093D980371393103C8
:100850004036DB0265339102D4305402802E1D02F3
:10086000632CEE01752AC501B028A0011027810173
:100870008F2564012B244B01E0223401AC211F01A0
:100880008D200D01801FFC00841EED00971DDF00F0
:10089000B81CD200E61BC600201BBC00641AB200C4
:1008A000B219A8000A19A0006A189900D11791007E
:1008B00040178B00B516840031167E00B315790001
:1008C0003A157300C7146F0058146A00EE136600DF
:1008D0008813630025135E00C7125B006C1257007B
:1008E00015125400C111510070114F0021114B001D
:1008F000D61049008D1047004610440002104200F7
:10090000C00F4000800F3E00420F3C00060F3B002E
:10091000CB0E3800930E37005C0E3500270E3400E6
:10092000F30D3200C10D3100900D3000600D2E002E
:10093000320D2D00050D2C00D90C2B00AE0C29001A
:10094000850C29005C0C2700350C27000E0C2600B6
:10095000E80B2400C40B2400A00B23007D0B230014
:100960005A0B2100390B2100180B2000F80A1F0038
:10097000D90A1E00BB0A1E009D0A1D00800A1D0028
:10098000630A1C00470A1B002C0A1B00110A1A00EC
:10099000F7091A00DD091900C4091900AB0919008B
:1009A000920917007B091800630917004C0916000B
:1009B00036091600200916000A091500F508150069
:1009C000E0081400CC081400B8081400A4081400AF
:1009D000900813007D0812006B08130058081200DD
:1009E00046081200340811002308110012081100F3
:1009F00001081100F0071000E0071000D0071000F8
:100A0000C0071000B0070F00A107100091070E00EB
:100A100083070F0074070F0065070E0057070E00CD
:100A200049070E003B070D002E070E0020070D00A2
:100A300013070D0006070D00F9060C00ED060D006A
:100A4000E0060C00D4060C00C8060C00BC060C0026
:100A5000B0060C00A4060B0099060C008D060B00D6
:100A600082060B0077060B006C060B0061060A007D
:100A700057060B004C060A0042060A0038060A0018
:100A80002E060A0024060A001A060A0010060900AB
:100A900007060A00FD050900F4050900EB05090039
:100AA000E2050900D9050900D0050900C7050900BC
:100AB000BE050900B5050800AD050800A50509003B
:100AC0009C050800940508008C05080084050800B2
:100AD0007C050800740508006C0507006505080022
:100AE0005D050700560508004E050700470507008D
:100AF0004005080038050700310507002A050700F2
:100B0000230507001C050600160507000F05070052
:100B10000805060002050700FB040600F5040700AF
:100B2000EE040600E8040600E2040700DB04060009
:100B3000D5040600CF040600C9040600C30406005D
:100B4000BD040600B7040600B1040500AC040600AD
:100B5000A6040600A00405009B04060095040500F9
:100B6000900406008A040500850405008004060040
:100B70007A04050075040500700405006B04050087
:100B800066040500610405005C04050057040500C7
:100B9000520405004D040500480405004304050007
:100BA0003E0404003A040500350405003004040046
:100BB0002C04050027040400230405001E0404007F
:100BC0001A04040016040500110404000D040400B6
:100BD000090405000404040000040400FC030400EC
:100BE000F8030400F4030400F0030400EC03040021
:100BF000E8030400E4030400E0030400DC03040051
:100C0000D8030400D4030400D0030400CC03040080
:100C1000C8030300C50303006563686F3A00205AE8
:100C20003A0020593A0020583A00656E6473746F98
:100C30007073206869743A20004572726F723A00CE
:100C400054656D7065726174757265206865617454
:100C500065642062656420737769746368656420E5
:100C60006F66662E204D415854454D502074726970
:100C7000676765726564202121003A2045787472A7
:100C800075646572207377697463686564206F6644
:100C9000662E204D494E54454D5020747269676749
:100CA000657265642021003A204578747275646528
:100CB00072207377697463686564206F66662E209E
:100CC0004D415854454D502074726967676572658F
:100CD00064202100E0020E012003090160030401E9
:100CE000A003FF00E003FA003004F5008004F000E8
:100CF000F004EB005005E600B005E1003006DC0032
:100D0000B006D7004007D200E007CD008008C80039
:100D10005009C300000ABE00F00AB900F00BB4008D
:100D2000100DAF00000EAA00600FA500B010A000CB
:100D300050129B00C013960040159100C0168C0005
:100D4000C0188700901A8200C01C7D00901E780099
:100D5000E0207300E0226E00F02469004027640068
:100D600040295F00802B5A00D02D5500902F500055
:100D7000A0314B0030334600F034410060363C0077
:100D8000C0373700F0383200103A2D00003B280001
:100D9000F03B2300B03C1E00503D1900D03D140034
:100DA000203E0F00903E0A00D03E0500202D204935
:100DB0006E76616C69642065787472756465722002
:100DC0006E756D626572202100202D20496E76615E
:100DD0006C6964206578747275646572206E756DD7
:100DE000626572210020403A006F6B20543A005037
:100DF0004944204175746F74756E65206661696C35
:100E0000656420212C2054656D7065726174757263
:100E10006520746F206869676800204B643A200081
:100E2000204B693A2000204B703A2000204E6F2062
:100E30006F76657273686F6F742000204B643A2080
:100E400000204B693A2000204B703A200020536F5D
:100E50006D65206F76657273686F6F742000204B2C
:100E6000643A2000204B693A2000204B703A200061
:100E700020436C61736963205049442000205475FD
:100E80003A2000204B753A2000206D61783A20000E
:100E9000206D696E3A200020643A2000206269616A
:100EA000733A20001000C90220013C0130020A01FF
:100EB0004003EF005004DD006005D0007006C5005F
:100EC0008007BC009008B500A009AE00B00AA900D8
:100ED000C00BA300D00C9F00E00D9A00F00E96000E
:100EE0000010930010118F0020128C003013880026
:100EF00040148500501582006016800070177D0038
:100F000080187A0090197800A01A7500B01B730041
:100F1000C01C7000D01D6E00E01E6C00F01F6A0047
:100F20000021670010226500202363003024610047
:100F300040255F0050265C0060275A00702858004A
:100F400080295600902A5400A02B5100B02C4F004D
:100F5000C02D4D00D02E4B00E02F4800F030460051
:100F6000003243001033400020343D0030353A0059
:100F700040363700503734006038300070392C006C
:100F8000803A2800903B2200A03C1C00B03D140099
:100F9000C03E0800D03F00000000210024002700D0
:100FA0002A002D0030003300010100000401070178
:100FB0000A0100002200250028002B002E0031002D
:100FC000340002010000050108010B0100002000AF
:100FD0002300260029002C002F0032000001000011
:100FE00003010601090105050505070508080808AC
:100FF000020202020A0A08080404040401010101B1
:1010000001010101030303030303030304070707AB
:101010000C0C0C0C0C0C0C0C020202020606060650
:10102000060606060B0B0B0B0B0B0B0B010210201D
:10103000200808102040102040800201020108040E
:1010400002010102040810204080804020100804A2
:1010500002018004020180402010080402010804FB
:10106000020101020408102040800102040810203F
:1010700040800000090A02080B0C0D07060304015A
:101080000000000000000000000000000000000060
:10109000000000000000000000000000000011102F
:1010A0000F00000000000000000000000000000031
:1010B0000000000000000000494E46494E495459C6
:1010C0004E414ECDCCCC3D0AD7233C17B7D1387713
:1010D000CC2B329595E6241FB14F0A000020410029
:1010E00000C84200401C4620BCBE4CCA1B0E5AAE73
:1010F000C59D74004A2611241FBECFEFD1E2DEBF8A
:10110000CDBF00E00CBF13E0A0E0B2E0E2E8F3EBFB
:1011100000E00BBF02C007900D92A838B107D9F7C5
:101120001BBE1BE0A8E8B3E001C01D92A63FB107BB
:10113000E1F710E1C6EFD0E104C02297FE010E9462
:101140007959C43FD107C9F70E945A540C94BF592A
:101150000C940000A0E0B0E0E0EBF8E00C948E59B5
:10116000EC015B016115710519F0FB01918380832E
:10117000F9908F2D90E00E947D59892BC9F7FDE2EF
:10118000FF1621F4F990EE24E39405C02BE2F21649
:1011900009F4F990EE248E0101501040C80168EB6B
:1011A00070E143E050E062D2892BF9F48E010E5FCA
:1011B0001F4FC8016BEB70E145E050E057D2892B1F
:1011C00019F48E01095F1F4FA114B10419F0F50144
:1011D00011830083E0FC04C070E090E080E813C05D
:1011E00070E090E080E86FEF07C1C80160EC70E14B
:1011F00043E050E03BD2892B69F4A114B10429F4F7
:1012000070E090E080EC6FE7F7C02296F501D183A3
:10121000C083F6CF8824992440E050E060E070E07D
:10122000EF2DE053EA30A0F5F2E0EF2A8E2D90E0AA
:101230009C0128703070E2FE06C0232B79F50894DB
:10124000811C911C2BC0232B19F008948108910854
:10125000DB01CA0112E0880F991FAA1FBB1F1A9554
:10126000D1F7480F591F6A1F7B1F440F551F661F78
:10127000771F4E0F511D611D711D483929E9520715
:1012800029E9620729E1720748F084E0E82A06C0EC
:10129000EE3F31F4E3FC39C098E0E92AF990C0CF81
:1012A000E53311F0E53189F529912D3219F4E0E1AA
:1012B000EE2A05C02B3219F081E090E003C029919D
:1012C00082E090E0E22FE053EA3018F0C81BD90B1F
:1012D0001CC020E030E0FCE020383F075CF4C9018E
:1012E000880F991F880F991F280F391F220F331F4E
:1012F0002E0F311DE991E053EA3068F3E4FE03C09C
:10130000309521953F4F820E931ECE2CDD24E1FEB9
:1013100007C0A114B10421F02197F501D183C08346
:10132000CB01BA010E94E2557B018C01F3E0CF2290
:10133000DD2423E0C216D10421F417FB109517F920
:10134000109557016801C801B70120E030E040E086
:1013500050E00E944255882309F44AC097FE0DC010
:1013600027EDE22E20E1F22E90948194910893943F
:10137000C0E2D0E000E010E012C09FEEE92E90E164
:10138000F92EF6CFF7012591359145915491C6017B
:10139000B5010E9422585B016C018C1A9D0A8C16C3
:1013A0009D0684F7D595C7950F5F1F4F0630110531
:1013B00029F08CEF9FEFE80EF91EF1CFC501D601A1
:1013C0007C018D018C2D880F8D2D881F8F3F51F052
:1013D000C601B50120E030E040E050E00E944255F7
:1013E000882331F482E290E09093F50B8093F40B24
:1013F0007E2D9F2D802F612F272F392F482F562F7D
:10140000B901CA01CDB7DEB7ECE00C94AA592F920E
:101410003F925F926F927F928F929F92AF92BF9214
:10142000CF92DF92EF92FF920F931F93CF93DF93B0
:101430008C011B01EA016115710519F0FB01918313
:101440008083209749F0CE010297839728F020E00F
:1014500030E040E050E0F6C0F801A1908F018A2D05
:1014600090E00E947D59892BB9F7FDE2AF1631F467
:10147000F801A1908F015524539407C0FBE2AF16E9
:1014800019F4F801A1908F015524209719F0C0316B
:10149000D105C1F4F0E3AF1679F4F8018081883703
:1014A00011F0883549F4F801A1800E5F1F4FF2E07A
:1014B0005F2AC0E1D0E006C0209721F480E3A8169F
:1014C000E9F427C0C830D10531F1C930D10524F481
:1014D000C230D10531F50CC0CA30D10589F0C03118
:1014E000D105F9F4C12CD12CE12CB8E0FB2E28C099
:1014F000C12CD12CE12CA0E4FA2E22C0CAE0D0E00D
:10150000FCECCF2EFCECDF2EFCECEF2EFCE0FF2EF3
:1015100017C0C8E0D0E0C12CD12CE12CE0E1FE2EB8
:101520000FC09E01442737FD4095542F60E070E0C6
:1015300080E090E80E942659C901DA016C017D0122
:1015400020E030E040E050E060E03E01882477FC9D
:101550008094982C70EDB72EBA0CE9E0EB1570F47E
:101560008A2D81548A3118F499ECB92E06C08A2D3F
:1015700081568A3150F589EAB82EBA0C8B2D90E04D
:101580008C179D0714F56F3FE1F0C216D306E406F1
:10159000F506B0F0CA01B901A40193010E94F45804
:1015A0009B01AC012B0D311D411D511D2130F0E07F
:1015B0003F07F0E04F07F0E85F0710F461E001C07B
:1015C0006FEFF801A1908F01C5CF2114310481F094
:1015D000662331F001501040F1011183008308C0EF
:1015E00051FE1AC002501040F1011183008314C053
:1015F00067FF12C050FC05C02FEF3FEF4FEF5FE7D2
:1016000004C020E030E040E050E882E290E09093B7
:10161000F50B8093F40B16C050FE08C05095409512
:10162000309521953F4F4F4F5F4F0CC057FF0AC079
:1016300082E290E09093F50B8093F40B2FEF3FEF55
:101640004FEF5FE7B901CA01DF91CF911F910F9171
:10165000FF90EF90DF90CF90BF90AF909F908F90D2
:101660007F906F905F903F902F900895FB01DC0179
:101670004150504088F08D9181341CF08B350CF432
:10168000805E659161341CF06B350CF4605E861BE6
:10169000611171F3990B0895881BFCCFFC018191B6
:1016A000861721F08823D9F7992708953197CF011C
:1016B0000895FB0151915523A9F0BF01DC014D9123
:1016C00045174111E1F759F4CD010190002049F08F
:1016D0004D9140154111C9F3FB014111EFCF81E05C
:1016E00090E001970895AEE0B0E0E9E7FBE00C94EC
:1016F00096590E891F8986E08C831A8309838FEFA0
:101700009FE79E838D839E01265E3F4FCE0101960B
:10171000688D798DA9010AD02F813885020F131F9A
:10172000F80110822E96E4E00C94B259ABE0B0E0E0
:10173000ECE9FBE00C9488593C012B015A01FC01B7
:1017400017821682838181FD03C06FEF7FEFB9C1DD
:101750009AE0892E1E010894211C311CF30123817B
:10176000F20123FD859123FF81912F01882309F444
:10177000A5C1853239F423FD859123FF81912F0185
:10178000853221F490E0B301B7D1E8CF982FFF2440
:10179000EE249924FFE1FF15D0F09B3269F09C32D2
:1017A00028F4903259F0933291F40EC09D3249F0F2
:1017B000903369F441E024C052E0F52A84E0F82A2D
:1017C00028C098E0F92A25C0E0E1FE2A22C0F7FCF3
:1017D00029C0892F80538A3070F4F6FE05C0989C8A
:1017E000902C1124980E15C0E89CE02C1124E80ED2
:1017F000F0E2FF2A0EC09E3229F4F6FC5FC140E4FD
:10180000F42A07C09C3619F450E8F52A02C098362D
:1018100049F4F20123FD959123FF91912F01992322
:1018200009F0B8CF892F8554833018F08052833067
:1018300038F444E050E0A40EB51E5FE359830FC0B6
:10184000933631F0933779F0933509F052C01FC0C9
:10185000F5018081898342E050E0A40EB51E61014C
:1018600001E010E011C0F501C080D180F6FC03C09A
:101870006FEF7FEF02C0692D70E042E050E0A40EF0
:10188000B51EC6012ED18C015FE7F52213C0F5010C
:10189000C080D180F6FC03C06FEF7FEF02C0692DDE
:1018A00070E042E050E0A40EB51EC6010FD18C01DD
:1018B00050E8F52AF3FE06C018C080E290E0B301BC
:1018C0001BD1EA948E2D90E008171907B0F30DC0D4
:1018D000F601F7FC8591F7FE81916F0190E0B3016D
:1018E0000BD1E110EA94015010400115110581F768
:1018F000E2C0943611F0993661F5F7FE08C0F501A3
:10190000208131814281538184E090E00AC0F50159
:10191000808191819C01442737FD4095542F82E0BE
:1019200090E0A80EB91E9FE6F92257FF09C0509516
:101930004095309521953F4F4F4F5F4FE0E8FE2A8D
:10194000CA01B901A1012AE030E002D1D82ED21893
:101950003FC0953729F41F2D1F7E2AE030E01DC0BF
:101960001F2D197F9F3661F0903720F4983509F0CC
:10197000A5C00FC0903739F0983709F09FC004C058
:1019800028E030E00AC0106114FD146020E130E06E
:1019900004C014FD166020E132E017FF08C0F50115
:1019A000608171818281938144E050E008C0F5013B
:1019B00080819181BC0180E090E042E050E0A40E83
:1019C000B51EA101C5D0D82ED2188FE7F82EF1226E
:1019D000F6FE0BC05EEFF522D91438F4F4FE07C012
:1019E000F2FC05C08FEEF82202C01D2D01C0192D9A
:1019F000F4FE0DC0FE01ED0DF11D8081803319F460
:101A000099EEF92208C01F5FF2FE05C003C08F2DBA
:101A1000867809F01F5F0F2DF3FC13C0F0FE0EC097
:101A20001E1510F09D2C0AC09D2C9E0C911A1E2D87
:101A300005C080E290E0B3015FD01F5F1E15C8F3C0
:101A400004C01E1510F4E11A01C0EE2404FF0EC0FC
:101A500080E390E0B30150D002FF1BC001FD03C042
:101A600088E790E00EC088E590E00BC0802F867874
:101A700081F001FF02C08BE201C080E2F7FC8DE241
:101A800090E0B30139D005C080E390E0B30134D0D9
:101A90009A94D914C8F3DA94F101ED0DF11D808107
:101AA00090E0B30129D0DD20B1F705C080E290E0DD
:101AB000B30122D0EA94EE20C9F750CEF30166813B
:101AC0007781CB012B96E2E10C94A459FC0105909F
:101AD000615070400110D8F7809590958E0F9F1F30
:101AE0000895FC016150704001900110D8F7809575
:101AF00090958E0F9F1F08950F931F93CF93DF93A1
:101B00008C01EB018B8181FF1BC082FF0DC02E81F8
:101B10003F818C819D812817390764F4E881F98120
:101B20000193F983E88306C0E885F985802F19952C
:101B3000892B31F48E819F8101969F838E8302C011
:101B40000FEF1FEFC801DF91CF911F910F91089503
:101B5000FA01AA27283051F1203181F1E8946F93DE
:101B60006E7F6E5F7F4F8F4F9F4FAF4FB1E03ED084
:101B7000B4E03CD0670F781F891F9A1FA11D680F22
:101B8000791F8A1F911DA11D6A0F711D811D911D55
:101B9000A11D20D009F468943F912AE0269F1124CA
:101BA0003019305D3193DEF6CF010895462F47702E
:101BB000405D4193B3E00FD0C9F7F6CF462F4F7089
:101BC000405D4A3318F0495D31FD4052419302D0E7
:101BD000A9F7EACFB4E0A69597958795779567958D
:101BE000BA95C9F700976105710508959B01AC018D
:101BF0000A2E06945795479537952795BA95C9F7B4
:101C0000620F731F841F951FA01D0895DF93CF934C
:101C1000CDB7DEB7E0970FB6F894DEBF0FBECDBFED
:101C2000DE011196E1E7F3E080E101900D92815031
:101C3000E1F7DE015196E1E6F3E080E101900D92DB
:101C40008150E1F7DE019196E1E5F3E080E101905A
:101C50000D928150E1F789819A81AB81BC8180939B
:101C6000140690931506A0931606B093170689895B
:101C70009A89AB89BC898093040690930506A0934A
:101C80000606B093070689A19AA1ABA1BCA18093D7
:101C9000240690932506A0932606B09327068D81EF
:101CA0009E81AF81B8858093180690931906A09302
:101CB0001A06B0931B068D899E89AF89B88D8093D3
:101CC000080690930906A0930A06B0930B068DA10F
:101CD0009EA1AFA1B8A58093280690932906A09352
:101CE0002A06B0932B0689859A85AB85BC8580939F
:101CF0001C0690931D06A0931E06B0931F06898DA7
:101D00009A8DAB8DBC8D80930C0690930D06A0939D
:101D10000E06B0930F0689A59AA5ABA5BCA5809326
:101D20002C0690932D06A0932E06B0932F068D853A
:101D30009E85AF85B8898093200690932106A09355
:101D40002206B09323068D8D9E8DAF8DB8A1809312
:101D5000100690931106A0931206B09313068DA55A
:101D60009EA5AFA5B8A98093300690933106A093A5
:101D70003206B093330680E090E8ABE3B5E480939D
:101D8000380690933906A0933A06B0933B068093A9
:101D90003C0690933D06A0933E06B0933F0620E09C
:101DA00030E040E050E02093340630933506409315
:101DB00036065093370680E29EE4A0E0B0E08093C0
:101DC000000690930106A0930206B09303062093A9
:101DD0004C0630934D0640934E0650934F0680E0DC
:101DE00090E0A0EAB1E48093400690934106A0936E
:101DF0004206B09343068DEC9CECACECBEE38093C2
:101E0000440690934506A0934606B093470680E0AB
:101E100090E0A0EAB0E48093480690934906A0932E
:101E20004A06B0934B06E2E6F1E0949108C0809137
:101E3000C00085FFFCCF9093C60031969491992302
:101E4000B1F7E0E0F2E007C08091C00085FFFCCF71
:101E500031969093C60090819923B1F78091C0008C
:101E600085FFFCCF8AE08093C600E0960FB6F89419
:101E7000DEBF0FBECDBFCF91DF910895F8940E94D1
:101E8000A74A5F9A8A9A8FB7F89490910801916057
:101E9000909308018FBF129A8CE060E00E94755306
:101EA000EFE2F1E0949108C08091C00085FFFCCF83
:101EB0009093C600319694919923B1F7E6E3F1E04F
:101EC000949108C08091C00085FFFCCF9093C6001C
:101ED000319694919923B1F78091C00085FFFCCF92
:101EE0008AE08093C600FFCF0E94CE516093AD037D
:101EF0007093AE038093AF039093B003E7E5F1E0F6
:101F0000949108C08091C00085FFFCCF9093C600DB
:101F1000319694919923B1F78091C00085FFFCCF51
:101F20008AE08093C6000895EF92FF920F931F936B
:101F30000E94CE51E090B103F090B2030091B30340
:101F40001091B4032091AD033091AE034091AF03E3
:101F50005091B003621B730B840B950BE616F706CA
:101F60000807190730F4E114F1040105110509F01F
:101F700085DF8091F0029091F102A091F202B09180
:101F8000F3020097A105B10561F10E94CE512091A5
:101F9000AD033091AE034091AF035091B003621B8B
:101FA000730B840B950B2091F0023091F10240915C
:101FB000F2025091F302261737074807590788F4B1
:101FC0009091400B8091410B981759F45F9A8A9A2F
:101FD0009FB7F894809108018160809308019FBFAA
:101FE000129A0E942F2E1F910F91FF90EF9008954B
:101FF0006F927F928F929F92AF92BF92CF92DF9219
:10200000EF92FF920F931F93F82E6091B50370919A
:10201000B6038091B7039091B8032091B903309132
:10202000BA034091BB035091BC030E945D573B0132
:102030004C016091EC027091ED0200D000D00DB720
:102040001EB70F5F1F4F882777FD8095982F0E943E
:10205000E4552091F4023091F5024091F60250913E
:10206000F7020E94225820E030E040E752E40E944C
:10207000495520E030E048EC52E40E9449555B01AC
:102080006C01F8016082718282829382F482809175
:10209000AB0385838FE893E061EC73E045EB53E09D
:1020A00020E001E032E0E32E0E9407288091C10386
:1020B0009091C203A091C303B091C40380938F0396
:1020C00090939003A0939103B09392038091C503E2
:1020D0009091C603A091C703B091C8038093930366
:1020E00090939403A0939503B09396038091C903B2
:1020F0009091CA03A091CB03B091CC038093970336
:1021000090939803A0939903B0939A038091CD0381
:102110009091CE03A091CF03B091D00380939B0305
:1021200090939C03A0939D03B0939E038DB79EB79D
:1021300006960FB6F8949EBF0FBE8DBF0E94CE517B
:102140006093AD037093AE038093AF039093B0039D
:102150001F910F91FF90EF90DF90CF90BF90AF90C5
:102160009F908F907F906F900895CF92DF92EF9223
:10217000FF920F931F936091C1037091C2038091EE
:10218000C3039091C40320E030E040E050E00E949F
:102190004255882364F480E090E0A0E0B0E08093B2
:1021A000C1039093C203A093C303B093C40360918F
:1021B000C5037091C6038091C7039091C80320E0C6
:1021C00030E040E050E00E944255882364F480E013
:1021D00090E0A0E0B0E08093C5039093C603A09385
:1021E000C703B093C8036091C9037091CA0380917B
:1021F000CB039091CC0320E030E040E050E00E941F
:102200004255882364F480E090E0A0E0B0E0809341
:10221000C9039093CA03A093CB03B093CC036091FE
:10222000C1037091C2038091C3039091C40320E065
:1022300030E043E453E40E945057181664F480E001
:1022400090E0A3E4B3E48093C1039093C203A0930E
:10225000C303B093C4036091C5037091C60380911A
:10226000C7039091C80320E030E04CE553E40E949E
:102270005057181664F480E090E0ACE5B3E4809326
:10228000C5039093C603A093C703B093C80360919E
:10229000C9037091CA038091CB039091CC0320E0D5
:1022A00030E040E253E40E945057181664F480E096
:1022B00090E0A0E2B3E48093C9039093CA03A09393
:1022C000CB03B093CC030E94CE516093AD037093C7
:1022D000AE038093AF039093B0036091EC027091D2
:1022E000ED02882777FD8095982F0E94E455209174
:1022F000F4023091F5024091F6025091F7020E94EB
:10230000225820E030E040E752E40E94495520E0A6
:1023100030E048EC52E40E9449557B018C0181EC8D
:1023200093E065EC73E049EC53E02DEC33E0EBEA2D
:10233000CE2EE3E0DE2E0E944B318091C1039091BE
:10234000C203A091C303B091C40380938F03909301
:102350009003A0939103B09392038091C503909151
:10236000C603A091C703B091C803809393039093D1
:102370009403A0939503B09396038091C903909121
:10238000CA03A091CB03B091CC03809397039093A1
:102390009803A0939903B0939A038091CD039091F1
:1023A000CE03A091CF03B091D00380939B03909371
:1023B0009C03A0939D03B0939E031F910F91FF90E8
:1023C000EF90DF90CF9008958FEF95E00E94412627
:1023D000EAE5F1E0949108C08091C00085FFFCCF50
:1023E0009093C600319694919923B1F74091D6030A
:1023F0005091D7036091D8037091D9034F5F5F4F1D
:102400006F4F7F4F8FEF95E02AE030E00E94FF266C
:102410008091C00085FFFCCF8AE08093C60064CD28
:102420004091E7035091E80320E630E0B901469F70
:102430009001479F300D569F300D1124682F77274C
:1024400067FD7095C90187519C4F28D99C019093D5
:102450006A058093690580E0232B09F081E00895E7
:102460008091690590916A05019660E070E04AE00C
:1024700050E00C94070A8091690590916A050196D5
:1024800060E070E00C94AA08AF92BF92CF92DF9206
:10249000EF92FF920F931F93CF93DF93FFE8EF2EFE
:1024A000F3E0FF2EC1ECD3E000E010E0F801ED5EB8
:1024B000FC4F8081B5DF882331F1DDDF5B016C01EA
:1024C000F801E857FC4F8081882311F061E002C0D9
:1024D0006091D10370E0882777FD8095982F0E9446
:1024E000E455F70120813181428153810E942258B5
:1024F0009B01AC01C601B5010E94695468837983D0
:102500008A839B8309C0F70180819181A281B38175
:1025100088839983AA83BB830F5F1F4F84E090E079
:10252000E80EF91E24960430110509F0BFCF86E4A9
:1025300077DF8823D9F09FDF7B018C016093D20382
:102540007093D3038093D4039093D50320E030E0BD
:1025500040E050E00E945057181644F4E092F40214
:10256000F092F5020093F6021093F702DF91CF91FB
:102570001F910F91FF90EF90DF90CF90BF90AF90A1
:10258000089582DF89E44CDF882349F074DF60938B
:10259000B5037093B6038093B7039093B8038AE4AE
:1025A0003FDF882349F067DF6093B9037093BA0374
:1025B0008093BB039093BC0308952F923F924F9258
:1025C0005F926F927F928F929F92AF92BF92CF92C3
:1025D000DF92EF92FF920F931F93DF93CF93CDB7CC
:1025E000DEB7A1970FB6F894DEBF0FBECDBF87E46C
:1025F00017DF882309F48CC43EDF0E94B155643094
:10260000710581F16530710554F46230710511F185
:102610006330710514F57723CCF40C9460216A358E
:10262000710509F416C46B35710534F46C3171050C
:1026300011F00C94602154C06B35710509F40DC480
:102640006C35710511F00C9460210CC41DDF8DDD1B
:102650000C94812196DF81E002C093DF80E0C8DC2A
:102660000C94812180E5DCDE882321F4EE24FF2414
:10267000870105C000DF0E94B6557B018C0183E510
:10268000CFDE882359F0F7DE20E030E04AE754E45B
:102690000E9422580E94B6557B018C010E94603E28
:1026A0000E94CE515B016C01AE0CBF1CC01ED11E3E
:1026B0000E94CE516093AD037093AE038093AF033D
:1026C0009093B00304C00E94414B81E02DDC0E9436
:1026D000CE516A157B058C059D05A8F30C946021ED
:1026E0008091F4029091F502A091F602B091F70268
:1026F0008093DA039093DB03A093DC03B093DD03B4
:102700008091EC029091ED0290938D0380938C0365
:1027100084E690E09093ED028093EC020E94CE510B
:102720006093AD037093AE038093AF039093B003B7
:1027300081E00E94893D80918F0390919003A09148
:102740009103B09192038093C1039093C203A0932D
:10275000C303B093C4038091930390919403A09119
:102760009503B09196038093C5039093C603A093FD
:10277000C703B093C8038091970390919803A091E9
:102780009903B0919A038093C9039093CA03A093CD
:10279000CB03B093CC0380919B0390919C03A091B9
:1027A0009D03B0919E038093CD039093CE03A0939D
:1027B000CF03B093D00380E090E0A0E0B0E080933E
:1027C000F4029093F502A093F602B093F70288E525
:1027D00027DE882351F489E523DE882331F48AE556
:1027E0001FDE882311F481E001C080E08093F802AD
:1027F000882329F488E514DE882309F4DAC00F2E33
:10280000F0E08F2EF0E09F2EF0E0AF2EF0E0BF2E34
:10281000F02D80928F0390929003A0929103B0923A
:1028200092038FE893E063E973E047E953E02BE913
:1028300033E00E940D2C80E090E4A2E9B3EC809399
:10284000C1039093C203A093C303B093C4036091E8
:10285000DC027091DD028091DE029091DF026093D4
:10286000F4027093F5028093F6029093F70220E051
:1028700030E040E752E40E9449557B018C0181EC35
:1028800093E065EC73E049EC53E02DEC33E0ABEA08
:10289000CA2EA3E0DA2E0E944B310E94603E809245
:1028A0008F0390929003A0929103B09292038FE8CD
:1028B00093E063E973E047E953E02BE933E00E94DA
:1028C0000D2C80E090E0A0EAB0E48093C1039093E7
:1028D000C203A093C303B093C4036091F402709148
:1028E000F5028091F6029091F70220E030E040E797
:1028F00052E40E9449557B018C0181EC93E065EC28
:1029000073E049EC53E02DEC33E00E944B310E9420
:10291000603E80E090E0A0E2B1EC8093C103909330
:10292000C203A093C303B093C4036091DC0270910F
:10293000DD028091DE029091DF0220E030E040E095
:102940005FE30E9422586093F4027093F502809333
:10295000F6029093F70220E030E040E752E40E9454
:1029600049557B018C0181EC93E065EC73E049EC07
:1029700053E02DEC33E00E944B310E94603E809288
:102980008F0390929003A0929103B0929203809251
:10299000C1039092C203A092C303B092C403809279
:1029A000F4029092F502A092F602B092F7020E9411
:1029B000823D8091F802882329F489E531DD88235E
:1029C00009F4DAC00F2EF0E08F2EF0E09F2EF0E039
:1029D000AF2EF0E0BF2EF02D8092930390929403DF
:1029E000A0929503B09296038FE893E063E973E0B9
:1029F00047E953E02BE933E00E940D2C80E090E0A2
:102A0000A5EAB3EC8093C5039093C603A093C703D4
:102A1000B093C8036091E0027091E1028091E202FC
:102A20009091E3026093F4027093F5028093F602B2
:102A30009093F70220E030E040E752E40E944955CD
:102A40007B018C0181EC93E065EC73E049EC53E091
:102A50002DEC33E0FBEACF2EF3E0DF2E0E944B316A
:102A60000E94603E8092930390929403A0929503FB
:102A7000B09296038FE893E063E973E047E953E08F
:102A80002BE933E00E940D2C80E090E0A0EAB0E456
:102A90008093C5039093C603A093C703B093C80364
:102AA0006091F4027091F5028091F6029091F70224
:102AB00020E030E040E752E40E9449557B018C0160
:102AC00081EC93E065EC73E049EC53E02DEC33E0EE
:102AD0000E944B310E94603E80E090E0A0E2B1ECA9
:102AE0008093C5039093C603A093C703B093C80314
:102AF0006091E0027091E1028091E2029091E30224
:102B000020E030E040E05FE30E9422586093F4024E
:102B10007093F5028093F6029093F70220E030E084
:102B200040E752E40E9449557B018C0181EC93E01F
:102B300065EC73E049EC53E02DEC33E00E944B313F
:102B40000E94603E8092930390929403A09295031A
:102B5000B09296038092C5039092C603A092C703D9
:102B6000B092C8038092F4029092F502A092F6020D
:102B7000B092F7020E94823D8091F802882329F4E6
:102B80008AE54EDC882309F4DAC00F2EF0E08F2EA0
:102B9000F0E09F2EF0E0AF2EF0E0BF2EF02D8092FF
:102BA000970390929803A0929903B0929A038FE8AA
:102BB00093E063E973E047E953E02BE933E00E94D7
:102BC0000D2C80E090E0A0E7B3EC8093C9039093D4
:102BD000CA03A093CB03B093CC036091E40270913D
:102BE000E5028091E6029091E7026093F40270930F
:102BF000F5028093F6029093F70220E030E040E780
:102C000052E40E9449557B018C0181EC93E065EC14
:102C100073E049EC53E02DEC33E0EBEACE2EE3E039
:102C2000DE2E0E944B310E94603E8092970390926C
:102C30009803A0929903B0929A038FE893E063E916
:102C400073E047E953E02BE933E00E940D2C80E06C
:102C500090E0A0E8BFE38093C9039093CA03A093D8
:102C6000CB03B093CC036091F4027091F502809194
:102C7000F6029091F70220E030E040E752E40E9433
:102C800049557B018C0181EC93E065EC73E049ECE4
:102C900053E02DEC33E00E944B310E94603E80E017
:102CA00090E0A0E0B0EC8093C9039093CA03A09396
:102CB000CB03B093CC036091E4027091E502809164
:102CC000E6029091E70220E030E040E05FE30E94FE
:102CD00022586093F4027093F5028093F602909369
:102CE000F70220E030E040E752E40E9449557B01C2
:102CF0008C0181EC93E065EC73E049EC53E02DEC42
:102D000033E00E944B310E94603E80929703909284
:102D10009803A0929903B0929A038092C90390926B
:102D2000CA03A092CB03B092CC038092F40290929B
:102D3000F502A092F602B092F7020E94823D88E569
:102D40006FDB8823C9F08CDB611571058105910566
:102D500099F091DB20919F033091A0034091A10352
:102D60005091A2030E94695460938F037093900363
:102D7000809391039093920389E552DB8823C9F0F5
:102D80006FDB611571058105910599F074DB209168
:102D9000A3033091A4034091A5035091A6030E9480
:102DA0006954609393037093940380939503909375
:102DB00096038AE535DB8823C9F052DB611571057E
:102DC0008105910599F057DB2091A7033091A80365
:102DD0004091A9035091AA030E94695460939703FC
:102DE000709398038093990390939A038FE893E0EC
:102DF00063E973E047E953E02BE933E00E940D2CCF
:102E000080E00E94893D8091DA039091DB03A091DC
:102E1000DC03B091DD038093F4029093F502A0935C
:102E2000F602B093F70280918C0390918D039093FA
:102E3000ED028093EC020E94CE516093AD0370933B
:102E4000AE038093AF039093B0030E94823D0C9435
:102E500060211092D1030C94602181E08093D10312
:102E60000C94602185E4DCDA882311F40E94603E32
:102E70007FE8E72E73E0F72E6FE9C62E63E0D62ECB
:102E800000E010E0F801ED5EFC4F8081C9DA882394
:102E900089F1F1DAF60120813181428153810E946A
:102EA0006954F7016083718382839383033059F4FB
:102EB000E2DAF70160837183828393838BE993E085
:102EC0000E94F02B17C0D7DAF601208131814281B0
:102ED00053810E946954F7016083718382839383D5
:102EE0008FE893E063E973E047E953E02BE933E0CF
:102EF0000E940D2C0F5F1F4F24E030E0E20EF31E06
:102F0000C20ED31E0430110509F0BCCF0C94602111
:102F10008DE486DA882311F40C94AC20ACDA0E949C
:102F2000B1556237710509F495C5633771050CF029
:102F300051C06335710509F4F5C4643571051CF59C
:102F40006A32710509F438C16B32710574F462316B
:102F5000710509F4EBC46F31710509F4B2C0613138
:102F6000710511F00C9460219FC06135710509F461
:102F7000D4C4623571050CF0D2C46035710511F00E
:102F80000C946021C8C46836710509F457C16936CC
:102F9000710574F46535710509F419C56535710558
:102FA0000CF4C4C46C35710511F00C94602125C576
:102FB0006A36710509F484C46A3671050CF4ACC133
:102FC0006B36710509F4A4C46D36710511F00C94CB
:102FD000602145C26E3C710509F47AC76F3C7105EA
:102FE00064F56E3B710509F4CDC36F3B710574F454
:102FF0006737710509F41FC66C38710509F47BC188
:103000006337710511F00C94602115C56B3C710597
:1030100009F4C2C66C3C710534F4693C710511F0C9
:103020000C9460217FC66C3C710509F4D3C66D3CDD
:10303000710511F00C946021EDC631E06E3273071A
:1030400011F40C94902081E06F3278077CF46D3D90
:10305000710509F46DC791E06D32790709F477C7FE
:103060006C3D710511F00C94602150C7E1E06039AE
:103070007E0711F40C94A320F1E061397F073CF442
:103080006F52714011F00C9460210C94942031E047
:10309000653F730711F40C94A620665F714011F030
:1030A0000C9460210C94A8205F988A989FB7F8949C
:1030B000809108018E7F809308019FBF12980C9425
:1030C00060210E94CE516093DE037093DF038093F2
:1030D000E0039093E1032091E2033091E3034091F8
:1030E000E4035091E503621B730B840B950B28EEF0
:1030F00033E040E050E00E942659F22EE32ED42E19
:10310000C52EEDB7FEB738970FB6F894FEBF0FBEC9
:10311000EDBF0DB71EB70F5F1F4FCE010196928313
:10312000818388E192E0F80193838283622F732F79
:10313000842F952F2CE330E040E050E00E94265988
:10314000F801358324836F2D7E2D8D2D9C2D2CE34E
:1031500030E040E050E00E942659F8017783668312
:103160000E94730BE2E6F1E094912DB73EB7285F21
:103170003F4F0FB6F8943EBF0FBE2DBF08C08091E1
:10318000C00085FFFCCF9093C6003196949199239F
:10319000B1F7FE01319607C08091C00085FFFCCFDA
:1031A00031969093C60090819923B1F78091C00029
:1031B00085FFFCCF0C945D2183E532D9882311F47F
:1031C0000C94602158D97B018C0180E529D9882392
:1031D00011F40C946021C801B7010E94B1557B0124
:1031E00077FF02C00C9460216F3F710519F014F055
:1031F0000C94602140D90E94B1558B01E7E1F3E0C6
:10320000808191818017910711F40C94602132968E
:1032100083E0EB38F807A1F717FF02C00C94602198
:10322000802F61E00E947553802F6E2D0E942854DC
:10323000802FB7010E9497520C9460218091AB03BC
:103240008093E60384E5ECD8882381F114D90E94A9
:10325000B655262F6093E603662341F1E2E6F1E0DE
:10326000949108C08091C00085FFFCCF9093C60068
:10327000319694919923B1F7E7E2F2E007C080918B
:10328000C00085FFFCCF31969093C60090819923B2
:10329000B1F78FEF95E0622F40E050E00E94EE26FC
:1032A0008091C00085FFFCCF0C945D2183E5B8D8E8
:1032B0008823F1F0E0D86B017C01B090E6030B2D80
:1032C00010E00E94B155DC01CB016B2D0E94DF495B
:1032D000000F111FF801E356F44F91838083000F14
:1032E000111F0B55144FF801C082D182E282F38284
:1032F0000E94CA46E5C783E593D8882309F4E0C74E
:10330000BAD80E94B155DC01CB010E94B64590931A
:10331000A00B80939F0BD4C78091AB038093E603EF
:1033200084E57ED8882379F1A6D80E94B655262F49
:103330006093E603662339F1E2E6F1E0949108C078
:103340008091C00085FFFCCF9093C6003196949188
:103350009923B1F7EEE3F2E007C08091C00085FF4A
:10336000FCCF31969093C60090819923B1F78FEFEF
:1033700095E0622F40E050E00E94EE268091C00070
:1033800085FFFCCF9AC7E6E6F2E0949108C08091F1
:10339000C00085FFFCCF9093C6003196949199238D
:1033A000B1F76091E603E62FF0E0EE0FFF1FEF5557
:1033B000F44F808191810E94BE48AB01BC018FEF28
:1033C00095E022E030E00E940528E2E6F2E09491E8
:1033D00008C08091C00085FFFCCF9093C600319655
:1033E00094919923B1F78091A30B9091A40B0E9423
:1033F0001746AB01BC018FEF95E022E030E00E9460
:103400000528EEE5F2E0949108C08091C00085FFA8
:10341000FCCF9093C600319694919923B1F7809197
:10342000E6030E94B045BC018FEF95E04AE050E012
:103430000E943227E5E5F2E007C08091C00085FFD9
:10344000FCCF31969093C60090819923B1F780917B
:10345000C00085FFFCCF8AE08093C60052C78091F0
:10346000AB038093E60384E50E941012882379F170
:1034700002D80E94B655262F6093E603662339F1E1
:10348000E2E6F1E0949108C08091C00085FFFCCF96
:103490009093C600319694919923B1F7E6E5F2E056
:1034A00007C08091C00085FFFCCF31969093C60085
:1034B00090819923B1F78FEF95E0622F40E050E0C3
:1034C0000E94EE268091C00085FFFCCFF6C683E502
:1034D0000E9410128823F9F00E943B126B017C01BC
:1034E000B090E6030B2D10E00E94B155DC01CB013A
:1034F0006B2D0E94DF49000F111FF801E356F44FB6
:1035000091838083000F111F0B55144FF801C08267
:10351000D182E282F3820E94CA460E94CE513B01D0
:103520004C01E091E603F0E0EE0FFF1FDF01A35630
:10353000B44F2D903C90EF55F44F40805180AA2419
:10354000AA94BA2C6501EBE5F2E024912F8FE7E510
:10355000F2E0349138A3E3E5F2E0849189A305C158
:103560009F8DEBE5F2E008C08091C00085FFFCCFA5
:103570009093C600319694919923B1F76091E60338
:10358000E62FF0E0EE0FFF1FEF55F44F80819181A1
:103590000E94BE48AB01BC018FEF95E022E030E015
:1035A0000E94052898A1E7E5F2E008C08091C000DC
:1035B00085FFFCCF9093C600319694919923B1F783
:1035C0006091E6038FEF95E070E04AE050E00E94E2
:1035D000322799A1E3E5F2E008C08091C00085FFA1
:1035E000FCCF9093C600319694919923B1F7D7FE02
:1035F00003C0EDE6F2E02BC00E94CE51A60195017A
:10360000205F384D4F4F5F4F261B370B480B590B30
:10361000CA01B90128EE33E040E050E00E9426598B
:103620008FEF95E0BA01A9012AE030E00E94E3267D
:103630008091C00085FFFCCF9AE09093C60011C036
:103640008091C00085FFFCCF31969093C600908199
:103650009923B1F78091C00085FFFCCFEAE0E093A9
:10366000C6000E94CE513B014C010E94414B81E0BB
:103670000E94940FFFEFAF16FFEFBF06FFEFCF06DC
:10368000FFEFDF0631F5E091E603421453048CF4BA
:10369000F0E0EE0FFF1FDF01AF55B44FE356F44FDC
:1036A000208131818D919C91821793070CF043C04A
:1036B00049C0F0E0EE0FFF1FDF01AF55B44FE356F6
:1036C000F44F208131818D919C91281739079CF509
:1036D00039C0D7FC37C06091E603E62FF0E0EE0F6B
:1036E000FF1FEF55F44F808191810E94BE487B01FE
:1036F0008C016091E603E62FF0E0EE0FFF1FE3562A
:10370000F44F808191810E94BE489B01AC01C801A9
:10371000B7010E9468540E94B15597FF07C0909569
:103720008095709561957F4F8F4F9F4F64307105E5
:10373000810591053CF00E94CE51AC01CB01DA012C
:103740005C016D012FEFA2162FEFB2062FEFC2061C
:103750002FEFD20651F0D7FCB6C50E94CE516A19A0
:103760007B096051774208F0AEC50E94CE516619C0
:10377000770988099909695E73408040904008F094
:10378000EFCE73CF83E50E941012882361F00E9470
:103790003B120E94B155DC01CB010E94B6459093CB
:1037A000A00B80939F0B0E94CE517B018C01E0E522
:1037B000F2E0B490ECE4F2E0C490E8E4F2E0D490FB
:1037C0002AE0A22E70C00E94CE516E197F09800B94
:1037D000910B695E73408040904008F45FC0609137
:1037E000AB03E62FF0E0EE0FFF1FEF55F44F8081A3
:1037F00091810E94BE48AB01BC019B2DE0E5F2E047
:1038000008C08091C00085FFFCCF9093C600319620
:1038100094919923B1F78FEF95E022E030E00E9478
:1038200005289C2DECE4F2E008C08091C00085FFE3
:10383000FCCF9093C600319694919923B1F7609193
:10384000AB038FEF95E070E04AE050E00E94322732
:103850009D2DE8E4F2E008C08091C00085FFFCCF18
:103860009093C600319694919923B1F78091A30B60
:103870009091A40B0E941746AB01BC018FEF95E01D
:1038800022E030E00E9405288091C00085FFFCCF37
:10389000A092C6000E94CE517B018C010E94414B38
:1038A00081E00E94940F20919F0B3091A00B80919A
:1038B000A30B9091A40B821793070CF484CF0DC532
:1038C00083E50E9410128823F9F00E943B1220E049
:1038D00030E040E050E00E944255882314F460E05C
:1038E00010C00E943B1220E030E04FE753E40E94FA
:1038F0005057181614F46FEF04C00E943B120E9438
:10390000B6556093AC03DCC48FEF8093AC03D8C48E
:103910001092AC03D5C4269AD3C42698D1C4109271
:103920008B03CEC481E080938B03CAC483E50E94DD
:103930001012882399F00E943B1220E030E04AE701
:1039400054E40E9422580E94B6556093F00270938E
:10395000F1028093F2029093F302B2C488E50E94D0
:103960001012882309F0C4C489E50E94101288232C
:1039700009F0BEC48AE50E941012882309F0B8C479
:1039800085E40E941012882309F0B2C40E94603EB0
:10399000129A0E946D3E94C45F9A89E50E941012AB
:1039A00081118A9A8AE50E941012882341F09FB7FC
:1039B000F894809108018160809308019FBF85E49D
:1039C0000E941012882309F47BC4129A79C483E5FB
:1039D0000E9410120E943B1220E030E04AE754E4BB
:1039E0000E9422580E94B6556093B1037093B203AF
:1039F0008093B3039093B40363C403E113E084E1C1
:103A0000E82E86E0F82EF80180810E9410128823AB
:103A100039F00E943B12F7016083718382839383A4
:103A20000F5F1F4F24E030E0E20EF31E33E007315A
:103A3000130749F745C4EDEAF1E0949108C080917D
:103A4000C00085FFFCCF9093C600319694919923D6
:103A5000B1F736C4EAEAF1E0949108C08091C00061
:103A600085FFFCCF9093C600319694919923B1F7CE
:103A700040918F0350919003609191037091920354
:103A80008FEF95E022E030E00E940528E7EAF1E0C0
:103A9000949108C08091C00085FFFCCF9093C60030
:103AA000319694919923B1F74091930350919403E7
:103AB00060919503709196038FEF95E022E030E0DE
:103AC0000E940528E4EAF1E0949108C08091C000CA
:103AD00085FFFCCF9093C600319694919923B1F75E
:103AE00040919703509198036091990370919A03C4
:103AF0008FEF95E022E030E00E940528E1EAF1E056
:103B0000949108C08091C00085FFFCCF9093C600BF
:103B1000319694919923B1F740919B0350919C0366
:103B200060919D0370919E038FEF95E022E030E05D
:103B30000E940528E7E9F1E0949108C08091C00057
:103B400085FFFCCF9093C600319694919923B1F7ED
:103B500080E00E944E3E0E94E45520911406309170
:103B6000150640911606509117060E944955AB0163
:103B7000BC018FEF95E022E030E00E940528E4E9E7
:103B8000F1E0949108C08091C00085FFFCCF909334
:103B9000C600319694919923B1F781E00E944E3E80
:103BA0000E94E455209118063091190640911A069A
:103BB00050911B060E944955AB01BC018FEF95E067
:103BC00022E030E00E940528E1E9F1E0949108C08C
:103BD0008091C00085FFFCCF9093C60031969491F0
:103BE0009923B1F782E00E944E3E0E94E455209155
:103BF0001C0630911D0640911E0650911F060E9422
:103C00004955AB01BC018FEF95E022E030E00E9406
:103C10000528E5E5F2E007C08091C00085FFFCCFF4
:103C200031969093C60090819923B1F78091C0009E
:103C300085FFFCCF42C3EAE8F1E0949108C080918F
:103C4000C00085FFFCCF9093C600319694919923D4
:103C5000B1F7659903C08FE692E002C082E792E077
:103C6000FC0107C08091C00085FFFCCF3196909386
:103C7000C60090819923B1F7E3E8F1E0949108C080
:103C80008091C00085FFFCCF9093C600319694913F
:103C90009923B1F78091030181FD03C08FE692E083
:103CA00002C082E792E0FC0107C08091C00085FF5E
:103CB000FCCF31969093C60090819923B1F7ECE741
:103CC000F1E0949108C08091C00085FFFCCF9093F3
:103CD000C600319694919923B1F74B9903C08FE6B2
:103CE00092E002C082E792E0FC0107C08091C00030
:103CF00085FFFCCF31969093C60090819923B1F750
:103D0000E5E5F2E007C08091C00085FFFCCF319669
:103D10009093C60090819923B1F78091C00085FFF0
:103D2000FCCFCBC213E1C12E13E0D12EEE24FF2431
:103D3000F60180810E941012882309F10E943B1233
:103D400087010C5D194F0E94B655F801608371839D
:103D5000828393830E943B128701005B194FF70116
:103D6000EC5EF94F20813181428153810E942258BB
:103D70000E94B655F801608371838283938308940F
:103D8000C11CD11C24E030E0E20EF31E37E1C31663
:103D900033E0D30669F694C203E113E0B4E0EB2EFE
:103DA000B6E0FB2EF80180810E941012882339F0C2
:103DB0000E943B12F70160837183828393830F5FBC
:103DC0001F4F24E030E0E20EF31E33E0073113070B
:103DD00049F776C283E50E941012882351F00E94B1
:103DE0003B12609338067093390680933A0690939D
:103DF0003B0684E50E941012882309F461C20E94E8
:103E00003B1260933C0670933D0680933E06909370
:103E10003F0656C283E50E941012882351F00E948B
:103E20003B12609334067093350680933606909368
:103E3000370684E50E941012882351F00E943B123D
:103E400060934C0670934D0680934E0690934F06F8
:103E500082E40E941012882361F00E943B120E94AB
:103E6000B655609300067093010680930206909306
:103E7000030688E50E941012882351F00E943B122D
:103E800060934006709341068093420690934306E8
:103E90008AE50E941012882351F00E943B12609321
:103EA000440670934506809346069093470685E442
:103EB0000E941012882309F403C20E943B126093EF
:103EC00048067093490680934A0690934B06F8C1C2
:103ED00003E113E0AFE9EA2EA3E0FA2EF8018081B6
:103EE0000E941012882339F00E943B12F701608370
:103EF0007183828393830F5F1F4F24E030E0E20ED3
:103F0000F31E33E00631130749F7DAC183E50E9457
:103F10001012882309F4D4C10E943B120E94B155AB
:103F20007093ED026093EC0281E080938E03C8C130
:103F300083E50E941012882309F4C2C10E943B123B
:103F40000E94B1557093EF026093EE02B9C180E513
:103F50000E941012882351F00E943B126093FE02CF
:103F60007093FF02809300039093010389E40E9401
:103F70001012882381F00E943B122DEB37E346E0BC
:103F80005EE30E94225860930203709303038093C0
:103F900004039093050384E40E941012882381F0A7
:103FA0000E943B122DEB37E346E05EE30E94495549
:103FB00060930603709307038093080390930903AB
:103FC00083E40E941012882351F00E943B126093F8
:103FD0000A0370930B0380930C0390930D030E94CC
:103FE0009945E5E7F2E007C08091C00085FFFCCF6E
:103FF00031969093C60090819923B1F7E8E7F2E0FB
:1040000007C08091C00085FFFCCF31969093C60019
:1040100090819923B1F74091FE025091FF02609187
:104020000003709101038FEF95E022E030E0EDD7BF
:10403000ECE7F2E007C08091C00085FFFCCF31962D
:104040009093C60090819923B1F76091020370911B
:10405000030380910403909105032DEB37E346E0C1
:104060005EE30E944955AB01BC018FEF95E022E071
:1040700030E0CBD7E0E8F2E007C08091C00085FFD8
:10408000FCCF31969093C60090819923B1F760914F
:1040900006037091070380910803909109032DEBAB
:1040A00037E346E05EE30E942258AB01BC018FEF8C
:1040B00095E022E030E0A9D7E4E8F2E007C0809183
:1040C000C00085FFFCCF31969093C6009081992364
:1040D000B1F760910A0370910B0380910C039091EA
:1040E0000D032DEB37E346E05EE30E942258AB015F
:1040F000BC018FEF95E022E030E087D7E5E5F2E004
:1041000007C08091C00085FFFCCF31969093C60018
:1041100090819923B1F78091C00085FFFCCFCDC07D
:1041200081E00E94ED2BCCC083E50E941012882311
:1041300029F460E070E086E193E402C00E943B1243
:104140000E94F14CBDC00E94603EBAC080E001C038
:1041500081E00E94060EB4C084E50E9410128823FC
:1041600009F463C00E943B120E94B655262F60934B
:10417000E603E2E6F1E0662389F1949108C08091BC
:10418000C00085FFFCCF9093C6003196949199238F
:10419000B1F7E8E8F2E007C08091C00085FFFCCFEE
:1041A00031969093C60090819923B1F78FEF95E0F7
:1041B000622F40E050E012D6EAE8F2E007C08091BA
:1041C000C00085FFFCCF31969093C6009081992363
:1041D000B1F78091C00085FFFCCF6FC01092AB0398
:1041E000949108C08091C00085FFFCCF9093C600D9
:1041F000319694919923B1F7EBE9F2E007C08091F1
:10420000C00085FFFCCF31969093C6009081992322
:10421000B1F78FEF95E060E070E04AE050E022D621
:104220008091C00085FFFCCF48C0E2E6F1E09491A8
:1042300008C08091C00085FFFCCF9093C6003196E6
:1042400094919923B1F7EAE6F1E0949108C0809146
:10425000C00085FFFCCF9093C600319694919923BE
:10426000B1F72091E7033091E80380E690E0289FC2
:10427000F001299FF00D389FF00D1124E751FC4FFC
:1042800007C08091C00085FFFCCF31969093C60097
:1042900090819923B1F7E8E6F1E0949108C080910C
:1042A000C00085FFFCCF9093C6003196949199236E
:1042B000B1F78091C00085FFFCCF8AE08093C600F3
:1042C0000E94740F1EC00E94CE516093E20370934F
:1042D000E3038093E4039093E5030E94CE5160933F
:1042E000AD037093AE038093AF039093B003E8CF18
:1042F0000E94603E88E50E941012882309F04CCB92
:104300004CCBA1960FB6F894DEBF0FBECDBFCF91B8
:10431000DF911F910F91FF90EF90DF90CF90BF90B2
:10432000AF909F908F907F906F905F904F903F9055
:104330002F9008959F92AF92BF92CF92DF92EF920B
:10434000FF920F931F93CF93DF9310E6C12ED12CD2
:10435000ECE6F2E0B490BAE0AB2E9924939404C258
:104360002D3051F02A3341F080916C0590916D050C
:104370008F3591050CF4D4C1E0916C05F0916D0579
:10438000309719F410926E050DC2A0916F05B0918F
:104390007005AC9D8001AD9D100DBC9D100D1124CC
:1043A000E00FF11FE751FC4F108280916E058823CA
:1043B00009F0B1C110926E05AF58BA4F1C92E801D6
:1043C000C751DC4FCE016EE470E00E944E0B9C01A1
:1043D000009709F40DC190936A05809369052F5FDA
:1043E0003F4F2C1B3D0B200F311FC90187519C4FA4
:1043F00060E070E04AE050E00E94070A60937505B3
:10440000709376058093770590937805E090D603B6
:10441000F090D7030091D8031091D903A801970118
:104420002F5F3F4F4F4F5F4F62177307840795070A
:1044300009F43CC080916F05909170059C012C9D02
:10444000C0012D9D900D3C9D900D112487519C4FD6
:104450006DEA72E00E94590B009741F5EFE2F1E03E
:10446000949108C08091C00085FFFCCF9093C60056
:10447000319694919923B1F7EFEDF2E0949108C051
:104480008091C00085FFFCCF9093C6003196949137
:104490009923B1F78FEF95E0B801A7012AE030E04A
:1044A000AED48091C00085FFFCCF8BC080916F059A
:1044B000909170058C9DE0018D9DD00D9C9DD00D3F
:1044C0001124CE0187519C4F6AE270E00E944E0B8E
:1044D0009C01009709F44EC010E040E0CE0102C0FC
:1044E0001E274F5FFC01E40FF11DE751FC4FE081F7
:1044F000EA32B1F730936A0520936905C901019644
:1045000060E070E00E94AA080E94B155212F30E0BF
:104510002617370709F45BC0EFE2F1E0949108C079
:104520008091C00085FFFCCF9093C6003196949196
:104530009923B1F7E1ECF2E0949108C08091C000BA
:1045400085FFFCCF9093C600319694919923B1F7E3
:104550004091D6035091D7036091D8037091D9034D
:104560008FEF95E02AE030E04AD48091C00085FFCB
:10457000FCCF27C0EFE2F1E0949108C08091C00029
:1045800085FFFCCF9093C600319694919923B1F7A3
:10459000E8E9F2E0949108C08091C00085FFFCCF6B
:1045A0009093C600319694919923B1F78FEF95E0DF
:1045B000B801A7012AE030E022D48091C00085FF35
:1045C000FCCF8AE08093C6000E94E41149C080912C
:1045D000750590917605A0917705B0917805809347
:1045E000D6039093D703A093D803B093D9033DC0CB
:1045F000CE016AE270E00E944E0B009709F435C0CC
:10460000EFE2F1E0949108C08091C00085FFFCCFFB
:104610009093C600319694919923B1F7EFE6F2E0BA
:10462000949108C08091C00085FFFCCF9093C60094
:10463000319694919923B1F74091D6035091D703C5
:104640006091D8037091D9038FEF95E02AE030E0B4
:10465000D6D38091C00085FFFCCF8AE08093C6004E
:1046600010926D0510926C059DC080916F05909120
:1046700070058C9D80018D9D100D9C9D100D112449
:10468000E801C751DC4FCE0167E470E00E944E0B99
:104690009C01009751F190936A05809369052F5F03
:1046A0003F4F2C1B3D0B200F311FC90187519C4FE1
:1046B00060E070E00E94AA080E94B1556430710564
:1046C000A0F49B2DECE6F2E008C08091C00085FFCD
:1046D000FCCF9093C600319694919923B1F78091C5
:1046E000C00085FFFCCFA092C60080916F0590911D
:1046F0007005019664E070E00E9413599093700574
:1047000080936F058091790590917A050196909339
:104710007A058093790510926D0510926C0524C07E
:104720002B3311F490926E0580916E058823E1F48D
:1047300020916C0530916D0580916F059091700509
:104740008C9DF0018D9DF00D9C9DF00D1124E20FCC
:10475000F31FE751FC4F80916B0580832F5F3F4F24
:1047600030936D0520936C058091FB059091FC05BD
:104770002091FD053091FE05821B930B8F77907081
:10478000892B81F08091790590917A05049754F4F2
:104790008FEF95E058D2282F80936B058A3009F06F
:1047A000DFCDEACDDF91CF911F910F91FF90EF9078
:1047B000DF90CF90BF90AF909F9008958091790542
:1047C00090917A0503970CF4B5DD8091790590916D
:1047D0007A05892BC1F00E94DD12809179059091B4
:1047E0007A05019790937A05809379058091E70384
:1047F0009091E803019664E070E00E941359909351
:10480000E8038093E7030E94414B81E00E94940FEC
:104810000C94CB44EF92FF920F931F93DF93CF93AF
:104820000F920F92CDB7DEB78FEF95E040E052ECDC
:1048300061E070E0D0D1E7ECF3E0949108C08091A2
:10484000C00085FFFCCF9093C600319694919923C8
:10485000B1F78091C00085FFFCCF8AE08093C6004D
:1048600042E651E0FA01949108C08091C00085FFB2
:10487000FCCF9093C600319694919923B1F784B7F9
:10488000282F80FF15C0EFEBF3E0949108C08091D2
:10489000C00085FFFCCF9093C60031969491992378
:1048A000B1F78091C00085FFFCCF8AE08093C600FD
:1048B00021FF15C0EFEAF3E0949108C08091C00099
:1048C00085FFFCCF9093C600319694919923B1F760
:1048D0008091C00085FFFCCF8AE08093C60022FF54
:1048E00015C0EEE9F3E0949108C08091C00085FF07
:1048F000FCCF9093C600319694919923B1F78091A3
:10490000C00085FFFCCF8AE08093C60023FF15C05E
:10491000EEE8F3E0949108C08091C00085FFFCCFE1
:104920009093C600319694919923B1F78091C0007D
:1049300085FFFCCF8AE08093C60025FF15C0EEE717
:10494000F3E0949108C08091C00085FFFCCF909364
:10495000C600319694919923B1F78091C00085FFEC
:10496000FCCF8AE08093C60014BEE5E7F3E09491A3
:1049700008C08091C00085FFFCCF9093C60031969F
:1049800094919923B1F7EBE6F3E0949108C08091FC
:10499000C00085FFFCCF9093C60031969491992377
:1049A000B1F78091C00085FFFCCF8AE08093C600FC
:1049B000FA019491E2E6F1E008C08091C00085FF21
:1049C000FCCF9093C600319694919923B1F7EBE513
:1049D000F3E0949108C08091C00085FFFCCF9093D4
:1049E000C600319694919923B1F7E1E5F3E09491F3
:1049F00008C08091C00085FFFCCF9093C60031961F
:104A000094919923B1F7E5E4F3E0949108C0809183
:104A1000C00085FFFCCF9093C600319694919923F6
:104A2000B1F7E7E3F3E0949108C08091C00085FFFF
:104A3000FCCF9093C600319694919923B1F7809161
:104A4000C00085FFFCCF8AE08093C600FA019491F4
:104A5000E2E6F1E008C08091C00085FFFCCF9093B2
:104A6000C600319694919923B1F7E8E2F3E094916E
:104A700008C08091C00085FFFCCF9093C60031969E
:104A800094919923B1F72091F00B3091F10BCE0165
:104A900001962115310519F4865F9B4002C0821BE7
:104AA000930B9A83898369817A818FEF95E04AE03D
:104AB00050E0D8D1E1E1F3E0949108C08091C000CA
:104AC00085FFFCCF9093C600319694919923B1F75E
:104AD0008FEF95E060ED74E04AE050E0C3D1809143
:104AE000C00085FFFCCF8AE08093C600109271055C
:104AF00010927205109273051092740580E00E9466
:104B0000060EEE24FF248701005B194FF701EC5DD0
:104B1000F94F60817181828193810E94E255F70192
:104B2000EC5EF94F20813181428153810E942258ED
:104B30000E94B655F801608371838283938384E079
:104B400090E0E80EF91E90E1E916F104E1F60E940A
:104B5000DA4A0E94882E0E94923D0F900F90CF91CA
:104B6000DF911F910F91FF90EF9008951F920F9288
:104B70000FB60F920BB60F9211242F933F934F93C2
:104B80008F939F93EF93FF934091C600E091FB05B5
:104B9000F091FC0531969F012F773070319780910D
:104BA000FD059091FE052817390739F0E558FA4FB1
:104BB00040833093FC052093FB05FF91EF919F917B
:104BC0008F914F913F912F910F900BBE0F900FBE81
:104BD0000F901F9018959A01AB01203081EE380795
:104BE00080E0480780E0580749F182E08093C000E8
:104BF00060E079E08DE390E00E9448592150304018
:104C000040405040CA01B90122E030E040E050E0AD
:104C10000E9448593093C5002093C4008091C10080
:104C200080618093C1008091C10088608093C10041
:104C30008091C10080688093C10008951092C000E7
:104C400020E130E0E7CF2091FD053091FE05809115
:104C5000FB059091FC058217930719F42FEF3FEFA6
:104C60000EC0F901E558FA4F80812F5F3F4F2F7733
:104C700030703093FE052093FD05282F30E0C901E8
:104C800008958091FD059091FE059093FC05809319
:104C9000FB05089508952F923F924F925F926F9275
:104CA0007F928F929F92AF92BF92CF92DF92EF92BC
:104CB000FF920F931F93DF93CF93CDB7DEB7A097EB
:104CC0000FB6F894DEBF0FBECDBF1C016A017B0199
:104CD000411551056105710541F440E350E060E084
:104CE00070E020E030E08BD055C088249924540136
:104CF000422E55246624772401E010E00C0F1D1F7E
:104D0000080D191DC701B601A30192010E94265981
:104D1000F80160830894811C911CA11CB11CC7017F
:104D2000B601A30192010E942659C901DA016C0162
:104D30007D01C114D104E104F104F1F681E0E82E13
:104D4000F12CEC0EFD1EE80CF91C3E010894611CD0
:104D5000711CD501C4010197A109B1096C01C818E2
:104D6000D90815C0F601EE0DFF1D40814A3010F440
:104D7000405D01C0495C552747FD5095652F752F53
:104D8000C10120E030E03BD00894E108F1086E1446
:104D90007F0441F7A0960FB6F894DEBF0FBECDBFDB
:104DA000CF91DF911F910F91FF90EF90DF90CF9007
:104DB000BF90AF909F908F907F906F905F904F903B
:104DC0003F902F9008952115310539F48091C0004E
:104DD00085FFFCCF4093C60008955DCFEF92FF9210
:104DE0000F931F939A01E62EFF2400E010E0B80114
:104DF000A701E9DF1F910F91FF90EF900895EF92C7
:104E0000FF920F931F93CF93DF93EC017A018B01F5
:104E10002115310539F48091C00085FFFCCFE09267
:104E2000C60019C02A303105A9F477FF0FC04DE242
:104E300050E060E070E020E030E0E1DF10950095A8
:104E4000F094E094E11CF11C011D111DCE01B8018C
:104E5000A7012AE020DFDF91CF911F910F91FF90F2
:104E6000EF900895EF92FF920F931F937B019A01A9
:104E70000027F7FC0095102FB801A701C0DF1F9194
:104E80000F91FF90EF9008950F931F938C014DE0C9
:104E900050E060E070E020E030E0B1DFC8014AE0BF
:104EA00050E060E070E020E030E0A9DF1F910F915A
:104EB0000895CF92DF92EF92FF920F931F938C0190
:104EC0009A016B01EE24FF24B701A6017CDFC80123
:104ED000DBDF1F910F91FF90EF90DF90CF9008954F
:104EE0009F92AF92BF92CF92DF92EF92FF920F9379
:104EF0001F93CF93DF93EC017A018B01922ECB01AC
:104F0000BA0120E030E040E050E00E9442558823A2
:104F100064F4CE014DE250E060E070E020E030E06B
:104F20006EDF17FB109517F9109520E030E040E098
:104F30005FE3AA240BC0CA01B90120E030E040E2DF
:104F400051E40E9449559B01AC01A394A91498F324
:104F5000C801B7010E9469547B018C010E94B655BB
:104F60005B016C010E94E2559B01AC01C801B701D5
:104F70000E9468547B018C01CE01B601A5012AE094
:104F800030E021DF992099F1E2EBF2E007C0809157
:104F9000C00085FFFCCF31969093C6009081992385
:104FA000B1F725C0C801B70120E030E040E251E48C
:104FB0000E9422587B018C010E94B1555B016C015B
:104FC000CC24B7FCC094DC2CCE01B601A5012AE0AC
:104FD00030E015DFC601B5010E94E4559B01AC012C
:104FE000C801B7010E9468547B018C019A949920F2
:104FF000C9F6DF91CF911F910F91FF90EF90DF9055
:10500000CF90BF90AF909F9008956ACF08952F9250
:105010003F924F925F926F927F928F929F92AF9248
:10502000BF92CF92DF92EF92FF920F931F93DF9385
:10503000CF93CDB7DEB7CD55D0400FB6F894DEBFD5
:105040000FBECDBF2F969FAF8EAF2F9761967FAFCC
:105050006EAF61972A0162962FAF629763960FAF8A
:1050600063976496EFAE64976896ACAEBDAECEAE75
:10507000DFAE6897E22EFF24EE0CFF1CEE0CFF1C47
:105080009A012E0D3F1D2D963FAF2EAF2D97D901C2
:105090006D907D908D909C90FC01EE0DFF1DC401E4
:1050A000B30120813181428153810E94695469AFEB
:1050B0007AAF8BAF9CAF10E0000F111F000F111FD4
:1050C000F201E00FF11F2B96FFAFEEAF2B97A08000
:1050D000B180C280D3802F96EEADFFAD2F97E00F49
:1050E000F11FC601B50120813181428153810E94A7
:1050F00069546DAB7EAB8FAB98AF64962FAD649760
:10510000E22FF0E0EE0FFF1FEE0FFF1F2F96AEAD68
:10511000BFAD2F97AE0FBF1F4D915D916D917C91EB
:1051200029964CAF5DAF6EAF7FAF299761966EAD9C
:105130007FAD6197E60FF71F608171818281938156
:1051400029962CAD3DAD4EAD5FAD29970E946854B8
:1051500069AB7AAB8BAB9CAB6196AEADBFAD6197E3
:105160001C968D919D910D90BC91A02D25968CAF94
:105170009DAFAEAFBFAF25972F96AEADBFAD2F970A
:105180001C962D913D914D915C911F9721962CAFCE
:105190003DAF4EAF5FAF2197A401930150582DA7AB
:1051A0003EA74FA758ABB601A501705849A75AA70B
:1051B0006BA77CA761966EAD7FAD6197E60EF71E7B
:1051C000D7016D917D918D919C9129AD3AAD4BADFB
:1051D0005CAD0E9468543B014C016196EEADFFADA1
:1051E00061970E0F1F1FD8016D917D918D919C913C
:1051F0002DA93EA94FA958AD0E9468545B016C01CE
:105200006DA57EA58FA598A9A60195010E9422589B
:105210007B018C0169A57AA58BA59CA5A4019301AE
:105220000E9422589B01AC01C801B7010E9468543A
:105230001B012C016DA57EA58FA598A9A401930142
:105240000E9422587B018C0169A57AA58BA59CA59B
:10525000A60195010E9422589B01AC01C801B7012B
:105260000E9469549B01AC01C201B1010E94DC544F
:105270005B016C0120E030E040E050E00E944255CC
:10528000882354F4C601B5012BED3FE049EC50E40E
:105290000E9469545B016C01E8968FADE897882302
:1052A00051F0C601B5012BED3FE049EC50E40E94FE
:1052B00068545B016C01C601B501E7962CAD3DADAC
:1052C0004EAD5FADE7970E94225829A93AA94BA994
:1052D0005CA95F770E945D577B018C012FE632E16C
:1052E00043E85AE30E94425587FD5DC2C801B701F9
:1052F0000E941F560E94B65578A76FA380E090E0E9
:105300000E94E2557B018C01C601B501A8019701FD
:105310000E9449556BA37CA38DA39EA369A97AA97A
:105320008BA99CA9A80197010E9449556F8F78A36A
:1053300089A39AA325966CAD7DAD8EAD9FAD2597C3
:1053400021962CAD3DAD4EAD5FAD21970E946854C6
:10535000A80197010E9449556B8F7C8F8D8F9E8F7E
:105360006BA17CA18DA19EA120E030E040E05FEB2D
:105370000E9422582BA13CA14DA15EA10E9422585F
:1053800020E030E040E85FE30E9469546F8B788F43
:10539000898F9A8F64962FAD6497E22FF0E0EE0F1D
:1053A000FF1FEE0FFF1F9E012F5F3F4FE20FF31F06
:1053B00029964CAD5DAD6EAD7FAD2997408351838D
:1053C000628373832F96AEADBFAD2F971C964D9120
:1053D0005D916D917C911F974D875E876F87788B6C
:1053E00041E050E05A8B498B662462967FAD62970C
:1053F000672F70E0660F771F660F771FC901860F52
:10540000971F6A969FAF8EAF6A976396BFAD6397FB
:10541000AB2FB0E0AA0FBB1FAA0FBB1F21E030E0EB
:105420002C0F3D1F2A0F3B1F6C963FAF2EAF6C9782
:105430006E96FFAFEEAF6E978FC138E136150CF464
:1054400046C06DA57EA58FA598A92BA13CA14DA115
:105450005EA10E9422587B018C0169A57AA58BA5CB
:105460009CA52F89388D498D5A8D0E9422589B0109
:10547000AC01C801B7010E9469547B018C016DA584
:105480007EA58FA598A92F89388D498D5A8D0E94A8
:1054900022585B016C0169A57AA58BA59CA52BA15F
:1054A0003CA14DA15EA10E9422589B01AC01C60106
:1054B000B5010E9468546DA77EA78FA798AB63942F
:1054C000C701D80189A79AA7ABA7BCA765C049891E
:1054D0005A89BA0180E090E00E94E2552BA13CA1DC
:1054E0004DA15EA10E9422587B018C01C8010E943F
:1054F00046556B8B7C8B8D8B9E8BB701C8010E94B0
:1055000085583B014C012D96AEADBFAD2D97ED906A
:10551000FD900D911C9117FB109517F910952B9686
:10552000EEADFFAD2B972080318042805380C801C3
:10553000B7012B893C894D895E890E9422585B0105
:105540006C01C201B101A40193010E9422589B0188
:10555000AC01C601B5010E9469546DA77EA78FA753
:1055600098ABC801B701A40193010E9422587B01A6
:105570008C01C201B1012B893C894D895E890E9451
:1055800022589B01AC01C801B7010E94685469A769
:105590007AA78BA79CA7662469AD7AAD8BAD9CAD2D
:1055A0002DA53EA54FA558A90E9469546A96AEAD97
:1055B000BFAD6A976D937D938D939C9313976DA95F
:1055C0007EA98FA998AD29A53AA54BA55CA50E94F7
:1055D00069546C96EEADFFAD6C97608371838283E6
:1055E00093836E96AEADBFAD6E976D917D918D91AB
:1055F0009C912F8D38A149A15AA10E9469546E96A1
:10560000EEADFFAD6E976083718382839383ED84EB
:10561000FE840F85188969817A818B819C8120E0C5
:1056200030E040E050E00E944255882344F480E09E
:1056300090E0A0E0B0E089839A83AB83BC836D8166
:105640007E818F81988520E030E040E050E00E942C
:105650004255882344F480E090E0A0E0B0E08D83E0
:105660009E83AF83B88769857A858B859C8520E08A
:1056700030E040E050E00E944255882344F480E04E
:1056800090E0A0E0B0E089879A87AB87BC8769810A
:105690007A818B819C8120E030E043E453E40E94D6
:1056A0005057181644F480E090E0A3E4B3E48983F3
:1056B0009A83AB83BC836D817E818F81988520E046
:1056C00030E04CE553E40E945057181644F480E053
:1056D00090E0ACE5B3E48D839E83AF83B8876985A2
:1056E0007A858B859C8520E030E040E253E40E947F
:1056F0005057181644F480E090E0A0E2B3E48987A4
:105700009A87AB87BC87C801B7012B8D3C8D4D8D27
:105710005E8D0E9469546D877E878F87988BCE013E
:105720000196BE016B5F7F4FAE01475F5F4F9E01E9
:10573000235F3F4F6896ECACFDAC0EAD1FAD689794
:10574000F8E7CF2ED12CCC0EDD1EA5D529893A89BC
:105750002F5F3F4F3A8B298B49895A896FA178A5D2
:105760004617570708F469CE61964EAD5FAD619755
:10577000485F5F4F61962EAD3FAD6197245F3F4F0D
:1057800061968EAD9FAD6197DC011496BD01689660
:10579000ECACFDAC0EAD1FAD6897E8E7CE2ED12C7A
:1057A000CC0EDD1E78D5C35ADF4F0FB6F894DEBF9E
:1057B0000FBECDBFCF91DF911F910F91FF90EF9062
:1057C000DF90CF90BF90AF909F908F907F906F9021
:1057D0005F904F903F902F9008958093420B0895D3
:1057E000FC0160817181828193812091200630913A
:1057F000210640912206509123060E9422580E94C1
:10580000F25760936C0670936D0680936E069093CA
:105810006F068CE696E00C943D3E8F929F92AF927D
:10582000BF92CF92DF92EF92FF920F931F93FC01F2
:105830008B015A014901608171818281938120919C
:1058400014063091150640911606509117060E94D5
:1058500022580E94F25730E6C32E36E0D32E6093D2
:105860006006709361068093620690936306F80168
:10587000608171818281938120911806309119068F
:1058800040911A0650911B060E9422580E94F2571E
:1058900024E0E22EF12CEC0CFD1C60936406F70171
:1058A000718382839383F501608171818281938109
:1058B00020911C0630911D0640911E0650911F0636
:1058C0000E9422580E94F2578601085F1F4F609382
:1058D0006806F801718382839383F401608171818A
:1058E00082819381209120063091210640912206E9
:1058F000509123060E9422580E94F257F6013C96CE
:1059000060936C06718382839383C601B701A801FB
:105910009F010E94033E80E090E0A0E0B0E0809311
:10592000430B9093440BA093450BB093460B80938D
:10593000470B9093480BA093490BB0934A0B80936D
:105940004B0B90934C0BA0934D0BB0934E0B80934D
:105950004F0B9093500BA093510BB093520B80932D
:10596000530B9093540BA093550BB093560B1F9170
:105970000F91FF90EF90DF90CF90BF90AF909F90EE
:105980008F9008958F929F92AF92BF92CF92DF92A5
:10599000EF92FF920F931F93CF93DF93EC016B0174
:1059A000009709F45CC08FA9882309F058C0EEA0C5
:1059B000FFA008A519A5FB01B6A0A7A090A481A4EB
:1059C000C801B7012B2D3A2D492D582D0E94425563
:1059D00088230CF044C0C801B701A80197010E94B8
:1059E00022587B018C016AA97BA98CA99DA990589A
:1059F00020E030E040E050EC0E9422582EA53FA568
:105A000048A959A90E9422589B01AC01C801B701BD
:105A10000E9469540E948F587B018C016B2D7A2D56
:105A2000892D982D9701A8010E944255882324F4BE
:105A3000EB2CFA2C092D182D6B2D7A2D892D982DF4
:105A40009701A8010E944255882349F0C701D80157
:105A5000F60186A397A3A0A7B1A781E086ABDF914B
:105A6000CF911F910F91FF90EF90DF90CF90BF905B
:105A7000AF909F908F900895EF92FF920F931F9396
:105A8000CF93DF93F090410B00E010E020E030E096
:105A90004DE4E42E11C0FE9CE0011124C059D94F01
:105AA000C901B801AE016EDF8F2D8F5F803109F41F
:105AB00080E0F82E98018E018091400BF81659F77E
:105AC000C901B80140E050E05DDFDF91CF911F9147
:105AD0000F91FF90EF900895AF92BF92CF92DF9217
